{"abi":[{"type":"constructor","inputs":[{"name":"_poolManager","type":"address","internalType":"contract IPoolManager"},{"name":"_aavePool","type":"address","internalType":"address"}],"stateMutability":"nonpayable"},{"type":"function","name":"DISCOUNTED_FEE","inputs":[],"outputs":[{"name":"","type":"uint24","internalType":"uint24"}],"stateMutability":"view"},{"type":"function","name":"HF_DANGER","inputs":[],"outputs":[{"name":"","type":"uint256","internalType":"uint256"}],"stateMutability":"view"},{"type":"function","name":"HF_MODERATE","inputs":[],"outputs":[{"name":"","type":"uint256","internalType":"uint256"}],"stateMutability":"view"},{"type":"function","name":"HF_STRONG","inputs":[],"outputs":[{"name":"","type":"uint256","internalType":"uint256"}],"stateMutability":"view"},{"type":"function","name":"PREMIUM_FEE","inputs":[],"outputs":[{"name":"","type":"uint24","internalType":"uint24"}],"stateMutability":"view"},{"type":"function","name":"STANDARD_FEE","inputs":[],"outputs":[{"name":"","type":"uint24","internalType":"uint24"}],"stateMutability":"view"},{"type":"function","name":"aavePool","inputs":[],"outputs":[{"name":"","type":"address","internalType":"contract IAavePool"}],"stateMutability":"view"},{"type":"function","name":"afterAddLiquidity","inputs":[{"name":"sender","type":"address","internalType":"address"},{"name":"key","type":"tuple","internalType":"struct PoolKey","components":[{"name":"currency0","type":"address","internalType":"Currency"},{"name":"currency1","type":"address","internalType":"Currency"},{"name":"fee","type":"uint24","internalType":"uint24"},{"name":"tickSpacing","type":"int24","internalType":"int24"},{"name":"hooks","type":"address","internalType":"contract IHooks"}]},{"name":"params","type":"tuple","internalType":"struct ModifyLiquidityParams","components":[{"name":"tickLower","type":"int24","internalType":"int24"},{"name":"tickUpper","type":"int24","internalType":"int24"},{"name":"liquidityDelta","type":"int256","internalType":"int256"},{"name":"salt","type":"bytes32","internalType":"bytes32"}]},{"name":"delta0","type":"int256","internalType":"BalanceDelta"},{"name":"delta1","type":"int256","internalType":"BalanceDelta"},{"name":"hookData","type":"bytes","internalType":"bytes"}],"outputs":[{"name":"","type":"bytes4","internalType":"bytes4"},{"name":"","type":"int256","internalType":"BalanceDelta"}],"stateMutability":"nonpayable"},{"type":"function","name":"afterDonate","inputs":[{"name":"sender","type":"address","internalType":"address"},{"name":"key","type":"tuple","internalType":"struct PoolKey","components":[{"name":"currency0","type":"address","internalType":"Currency"},{"name":"currency1","type":"address","internalType":"Currency"},{"name":"fee","type":"uint24","internalType":"uint24"},{"name":"tickSpacing","type":"int24","internalType":"int24"},{"name":"hooks","type":"address","internalType":"contract IHooks"}]},{"name":"amount0","type":"uint256","internalType":"uint256"},{"name":"amount1","type":"uint256","internalType":"uint256"},{"name":"hookData","type":"bytes","internalType":"bytes"}],"outputs":[{"name":"","type":"bytes4","internalType":"bytes4"}],"stateMutability":"nonpayable"},{"type":"function","name":"afterInitialize","inputs":[{"name":"sender","type":"address","internalType":"address"},{"name":"key","type":"tuple","internalType":"struct PoolKey","components":[{"name":"currency0","type":"address","internalType":"Currency"},{"name":"currency1","type":"address","internalType":"Currency"},{"name":"fee","type":"uint24","internalType":"uint24"},{"name":"tickSpacing","type":"int24","internalType":"int24"},{"name":"hooks","type":"address","internalType":"contract IHooks"}]},{"name":"sqrtPriceX96","type":"uint160","internalType":"uint160"},{"name":"tick","type":"int24","internalType":"int24"}],"outputs":[{"name":"","type":"bytes4","internalType":"bytes4"}],"stateMutability":"nonpayable"},{"type":"function","name":"afterRemoveLiquidity","inputs":[{"name":"sender","type":"address","internalType":"address"},{"name":"key","type":"tuple","internalType":"struct PoolKey","components":[{"name":"currency0","type":"address","internalType":"Currency"},{"name":"currency1","type":"address","internalType":"Currency"},{"name":"fee","type":"uint24","internalType":"uint24"},{"name":"tickSpacing","type":"int24","internalType":"int24"},{"name":"hooks","type":"address","internalType":"contract IHooks"}]},{"name":"params","type":"tuple","internalType":"struct ModifyLiquidityParams","components":[{"name":"tickLower","type":"int24","internalType":"int24"},{"name":"tickUpper","type":"int24","internalType":"int24"},{"name":"liquidityDelta","type":"int256","internalType":"int256"},{"name":"salt","type":"bytes32","internalType":"bytes32"}]},{"name":"delta0","type":"int256","internalType":"BalanceDelta"},{"name":"delta1","type":"int256","internalType":"BalanceDelta"},{"name":"hookData","type":"bytes","internalType":"bytes"}],"outputs":[{"name":"","type":"bytes4","internalType":"bytes4"},{"name":"","type":"int256","internalType":"BalanceDelta"}],"stateMutability":"nonpayable"},{"type":"function","name":"afterSwap","inputs":[{"name":"sender","type":"address","internalType":"address"},{"name":"key","type":"tuple","internalType":"struct PoolKey","components":[{"name":"currency0","type":"address","internalType":"Currency"},{"name":"currency1","type":"address","internalType":"Currency"},{"name":"fee","type":"uint24","internalType":"uint24"},{"name":"tickSpacing","type":"int24","internalType":"int24"},{"name":"hooks","type":"address","internalType":"contract IHooks"}]},{"name":"params","type":"tuple","internalType":"struct SwapParams","components":[{"name":"zeroForOne","type":"bool","internalType":"bool"},{"name":"amountSpecified","type":"int256","internalType":"int256"},{"name":"sqrtPriceLimitX96","type":"uint160","internalType":"uint160"}]},{"name":"delta","type":"int256","internalType":"BalanceDelta"},{"name":"hookData","type":"bytes","internalType":"bytes"}],"outputs":[{"name":"","type":"bytes4","internalType":"bytes4"},{"name":"","type":"int128","internalType":"int128"}],"stateMutability":"nonpayable"},{"type":"function","name":"beforeAddLiquidity","inputs":[{"name":"sender","type":"address","internalType":"address"},{"name":"key","type":"tuple","internalType":"struct PoolKey","components":[{"name":"currency0","type":"address","internalType":"Currency"},{"name":"currency1","type":"address","internalType":"Currency"},{"name":"fee","type":"uint24","internalType":"uint24"},{"name":"tickSpacing","type":"int24","internalType":"int24"},{"name":"hooks","type":"address","internalType":"contract IHooks"}]},{"name":"params","type":"tuple","internalType":"struct ModifyLiquidityParams","components":[{"name":"tickLower","type":"int24","internalType":"int24"},{"name":"tickUpper","type":"int24","internalType":"int24"},{"name":"liquidityDelta","type":"int256","internalType":"int256"},{"name":"salt","type":"bytes32","internalType":"bytes32"}]},{"name":"hookData","type":"bytes","internalType":"bytes"}],"outputs":[{"name":"","type":"bytes4","internalType":"bytes4"}],"stateMutability":"nonpayable"},{"type":"function","name":"beforeDonate","inputs":[{"name":"sender","type":"address","internalType":"address"},{"name":"key","type":"tuple","internalType":"struct PoolKey","components":[{"name":"currency0","type":"address","internalType":"Currency"},{"name":"currency1","type":"address","internalType":"Currency"},{"name":"fee","type":"uint24","internalType":"uint24"},{"name":"tickSpacing","type":"int24","internalType":"int24"},{"name":"hooks","type":"address","internalType":"contract IHooks"}]},{"name":"amount0","type":"uint256","internalType":"uint256"},{"name":"amount1","type":"uint256","internalType":"uint256"},{"name":"hookData","type":"bytes","internalType":"bytes"}],"outputs":[{"name":"","type":"bytes4","internalType":"bytes4"}],"stateMutability":"nonpayable"},{"type":"function","name":"beforeInitialize","inputs":[{"name":"sender","type":"address","internalType":"address"},{"name":"key","type":"tuple","internalType":"struct PoolKey","components":[{"name":"currency0","type":"address","internalType":"Currency"},{"name":"currency1","type":"address","internalType":"Currency"},{"name":"fee","type":"uint24","internalType":"uint24"},{"name":"tickSpacing","type":"int24","internalType":"int24"},{"name":"hooks","type":"address","internalType":"contract IHooks"}]},{"name":"sqrtPriceX96","type":"uint160","internalType":"uint160"}],"outputs":[{"name":"","type":"bytes4","internalType":"bytes4"}],"stateMutability":"nonpayable"},{"type":"function","name":"beforeRemoveLiquidity","inputs":[{"name":"sender","type":"address","internalType":"address"},{"name":"key","type":"tuple","internalType":"struct PoolKey","components":[{"name":"currency0","type":"address","internalType":"Currency"},{"name":"currency1","type":"address","internalType":"Currency"},{"name":"fee","type":"uint24","internalType":"uint24"},{"name":"tickSpacing","type":"int24","internalType":"int24"},{"name":"hooks","type":"address","internalType":"contract IHooks"}]},{"name":"params","type":"tuple","internalType":"struct ModifyLiquidityParams","components":[{"name":"tickLower","type":"int24","internalType":"int24"},{"name":"tickUpper","type":"int24","internalType":"int24"},{"name":"liquidityDelta","type":"int256","internalType":"int256"},{"name":"salt","type":"bytes32","internalType":"bytes32"}]},{"name":"hookData","type":"bytes","internalType":"bytes"}],"outputs":[{"name":"","type":"bytes4","internalType":"bytes4"}],"stateMutability":"nonpayable"},{"type":"function","name":"beforeSwap","inputs":[{"name":"sender","type":"address","internalType":"address"},{"name":"key","type":"tuple","internalType":"struct PoolKey","components":[{"name":"currency0","type":"address","internalType":"Currency"},{"name":"currency1","type":"address","internalType":"Currency"},{"name":"fee","type":"uint24","internalType":"uint24"},{"name":"tickSpacing","type":"int24","internalType":"int24"},{"name":"hooks","type":"address","internalType":"contract IHooks"}]},{"name":"params","type":"tuple","internalType":"struct SwapParams","components":[{"name":"zeroForOne","type":"bool","internalType":"bool"},{"name":"amountSpecified","type":"int256","internalType":"int256"},{"name":"sqrtPriceLimitX96","type":"uint160","internalType":"uint160"}]},{"name":"hookData","type":"bytes","internalType":"bytes"}],"outputs":[{"name":"","type":"bytes4","internalType":"bytes4"},{"name":"","type":"int256","internalType":"BeforeSwapDelta"},{"name":"","type":"uint24","internalType":"uint24"}],"stateMutability":"nonpayable"},{"type":"function","name":"getHookPermissions","inputs":[],"outputs":[{"name":"","type":"tuple","internalType":"struct Hooks.Permissions","components":[{"name":"beforeInitialize","type":"bool","internalType":"bool"},{"name":"afterInitialize","type":"bool","internalType":"bool"},{"name":"beforeAddLiquidity","type":"bool","internalType":"bool"},{"name":"afterAddLiquidity","type":"bool","internalType":"bool"},{"name":"beforeRemoveLiquidity","type":"bool","internalType":"bool"},{"name":"afterRemoveLiquidity","type":"bool","internalType":"bool"},{"name":"beforeSwap","type":"bool","internalType":"bool"},{"name":"afterSwap","type":"bool","internalType":"bool"},{"name":"beforeDonate","type":"bool","internalType":"bool"},{"name":"afterDonate","type":"bool","internalType":"bool"},{"name":"beforeSwapReturnDelta","type":"bool","internalType":"bool"},{"name":"afterSwapReturnDelta","type":"bool","internalType":"bool"},{"name":"afterAddLiquidityReturnDelta","type":"bool","internalType":"bool"},{"name":"afterRemoveLiquidityReturnDelta","type":"bool","internalType":"bool"}]}],"stateMutability":"pure"},{"type":"function","name":"poolManager","inputs":[],"outputs":[{"name":"","type":"address","internalType":"contract IPoolManager"}],"stateMutability":"view"},{"type":"function","name":"previewFee","inputs":[{"name":"user","type":"address","internalType":"address"}],"outputs":[{"name":"fee","type":"uint24","internalType":"uint24"},{"name":"healthFactor","type":"uint256","internalType":"uint256"}],"stateMutability":"view"},{"type":"event","name":"FeeApplied","inputs":[{"name":"user","type":"address","indexed":true,"internalType":"address"},{"name":"healthFactor","type":"uint256","indexed":false,"internalType":"uint256"},{"name":"feeApplied","type":"uint24","indexed":false,"internalType":"uint24"}],"anonymous":false},{"type":"error","name":"HookNotImplemented","inputs":[]},{"type":"error","name":"InvalidPool","inputs":[]},{"type":"error","name":"NotPoolManager","inputs":[]},{"type":"error","name":"NotSelf","inputs":[]}],"bytecode":{"object":"0x60c060405234801561000f575f5ffd5b506040516112a33803806112a383398101604081905261002e9161032d565b6001600160a01b03821660805281610045306100c1565b506001600160a01b0381166100af5760405162461bcd60e51b815260206004820152602660248201527f416176654865616c7468486f6f6b3a207a65726f206161766520706f6f6c206160448201526564647265737360d01b606482015260840160405180910390fd5b6001600160a01b031660a05250610365565b6101b1816101ac604080516101c0810182525f80825260208201819052918101829052606081018290526080810182905260a0810182905260c0810182905260e08101829052610100810182905261012081018290526101408101829052610160810182905261018081018290526101a081019190915250604080516101c0810182525f80825260208201819052918101829052606081018290526080810182905260a08101829052600160c082015260e08101829052610100810182905261012081018290526101408101829052610160810182905261018081018290526101a081019190915290565b6101b4565b50565b80511515612000831615151415806101d85750602081015115156110008316151514155b806101ef5750604081015115156108008316151514155b806102065750606081015115156104008316151514155b8061021d5750608081015115156102008316151514155b80610234575060a081015115156101008316151514155b8061024a575060c0810151151560808316151514155b80610260575060e0810151151560408316151514155b806102775750610100810151151560208316151514155b8061028e5750610120810151151560108316151514155b806102a55750610140810151151560088316151514155b806102bc5750610160810151151560048316151514155b806102d35750610180810151151560028316151514155b806102ea57506101a0810151151560018316151514155b1561030057610300630732d7b560e51b83610304565b5050565b815f526001600160a01b03811660045260245ffd5b6001600160a01b03811681146101b1575f5ffd5b5f5f6040838503121561033e575f5ffd5b825161034981610319565b602084015190925061035a81610319565b809150509250929050565b60805160a051610ede6103c55f395f8181610227015281816106b3015261088301525f81816103f8015281816104390152818161049c015281816105050152818161056e015281816105ce0152818161063501526107880152610ede5ff3fe608060405234801561000f575f5ffd5b5060043610610127575f3560e01c8063abce1e53116100a9578063c4e833ce1161006e578063c4e833ce146102f6578063c54df140146103ea578063dc4c90d3146103f3578063dc98354e1461041a578063e1b4af69146102a6575f5ffd5b8063abce1e5314610261578063b47b2fb114610270578063b6a8b0fa146102a6578063bae5cdd0146102b9578063c112aff3146102c8575f5ffd5b8063647bb2f5116100ef578063647bb2f5146101d35780636c2bbe7e146101dc5780636fe7e6eb1461020f5780639f063efc146101dc578063a03e4bc314610222575f5ffd5b806321d0ee701461012b578063259982e51461012b578063395682b91461015c57806352af662014610179578063575e24b414610195575b5f5ffd5b61013e610139366004610a5b565b61042d565b6040516001600160e01b031990911681526020015b60405180910390f35b61016b671bc16d674ec8000081565b604051908152602001610153565b610181606481565b60405162ffffff9091168152602001610153565b6101a86101a3366004610ae2565b61048e565b604080516001600160e01b03199094168452602084019290925262ffffff1690820152606001610153565b610181610bb881565b6101ef6101ea366004610b3c565b6104f8565b604080516001600160e01b03199093168352602083019190915201610153565b61013e61021d366004610bc7565b610562565b6102497f000000000000000000000000000000000000000000000000000000000000000081565b6040516001600160a01b039091168152602001610153565b61016b6714d1120d7b16000081565b61028361027e366004610c26565b6105c1565b604080516001600160e01b03199093168352600f9190910b602083015201610153565b61013e6102b4366004610ca7565b610629565b61016b670de0b6b3a764000081565b6102db6102d6366004610d01565b61068c565b6040805162ffffff9093168352602083019190915201610153565b6103dd604080516101c0810182525f80825260208201819052918101829052606081018290526080810182905260a0810182905260c0810182905260e08101829052610100810182905261012081018290526101408101829052610160810182905261018081018290526101a081019190915250604080516101c0810182525f80825260208201819052918101829052606081018290526080810182905260a08101829052600160c082015260e08101829052610100810182905261012081018290526101408101829052610160810182905261018081018290526101a081019190915290565b6040516101539190610d23565b61018161138881565b6102497f000000000000000000000000000000000000000000000000000000000000000081565b61013e610428366004610e44565b61077c565b5f336001600160a01b037f000000000000000000000000000000000000000000000000000000000000000016146104775760405163570c108560e11b815260040160405180910390fd5b61048486868686866107d9565b9695505050505050565b5f8080336001600160a01b037f000000000000000000000000000000000000000000000000000000000000000016146104da5760405163570c108560e11b815260040160405180910390fd5b6104e788888888886107f3565b925092509250955095509592505050565b5f80336001600160a01b037f000000000000000000000000000000000000000000000000000000000000000016146105435760405163570c108560e11b815260040160405180910390fd5b61055289898989898989610847565b9150915097509795505050505050565b5f336001600160a01b037f000000000000000000000000000000000000000000000000000000000000000016146105ac5760405163570c108560e11b815260040160405180910390fd5b6105b8858585856107d9565b95945050505050565b5f80336001600160a01b037f0000000000000000000000000000000000000000000000000000000000000000161461060c5760405163570c108560e11b815260040160405180910390fd5b61061a888888888888610847565b91509150965096945050505050565b5f336001600160a01b037f000000000000000000000000000000000000000000000000000000000000000016146106735760405163570c108560e11b815260040160405180910390fd5b6106818787878787876107d9565b979650505050505050565b604051632fe4a15f60e21b81526001600160a01b0382811660048301525f918291829182917f0000000000000000000000000000000000000000000000000000000000000000169063bf92857c9060240160c060405180830381865afa1580156106f8573d5f5f3e3d5ffd5b505050506040513d601f19601f8201168201806040525081019061071c9190610e8b565b9550505050925050815f0361073857610bb89590945092505050565b671bc16d674ec8000081106107535760649590945092505050565b6714d1120d7b160000811061076f57610bb89590945092505050565b6113889590945092505050565b5f336001600160a01b037f000000000000000000000000000000000000000000000000000000000000000016146107c65760405163570c108560e11b815260040160405180910390fd5b6107d18484846107d9565b949350505050565b5f604051630a85dc2960e01b815260040160405180910390fd5b5f8080610bb86020851061082f575f61080e86880188610d01565b90506001600160a01b0381161561082d575f61082982610862565b9250505b505b6315d7892d60e21b995f995090975095505050505050565b5f5f604051630a85dc2960e01b815260040160405180910390fd5b604051632fe4a15f60e21b81526001600160a01b0382811660048301525f917f00000000000000000000000000000000000000000000000000000000000000009091169063bf92857c9060240160c060405180830381865afa9250505080156108e8575060408051601f3d908101601f191682019092526108e591810190610e8b565b60015b6108f55750610bb8919050565b845f036109505760408051828152610bb860208201526001600160a01b038a16917f2e16ccff3b1b46f4b266374c573862a9029a2a0fb76c7a75955ef92c820797ec910160405180910390a250610bb8979650505050505050565b5f671bc16d674ec80000821061096857506064610985565b6714d1120d7b16000082106109805750610bb8610985565b506113885b6040805183815262ffffff831660208201526001600160a01b038b16917f2e16ccff3b1b46f4b266374c573862a9029a2a0fb76c7a75955ef92c820797ec910160405180910390a298975050505050505050565b6001600160a01b03811681146109ed575f5ffd5b50565b5f60a08284031215610a00575f5ffd5b50919050565b5f60808284031215610a00575f5ffd5b5f5f83601f840112610a26575f5ffd5b50813567ffffffffffffffff811115610a3d575f5ffd5b602083019150836020828501011115610a54575f5ffd5b9250929050565b5f5f5f5f5f6101608688031215610a70575f5ffd5b8535610a7b816109d9565b9450610a8a87602088016109f0565b9350610a998760c08801610a06565b925061014086013567ffffffffffffffff811115610ab5575f5ffd5b610ac188828901610a16565b969995985093965092949392505050565b5f60608284031215610a00575f5ffd5b5f5f5f5f5f6101408688031215610af7575f5ffd5b8535610b02816109d9565b9450610b1187602088016109f0565b9350610b208760c08801610ad2565b925061012086013567ffffffffffffffff811115610ab5575f5ffd5b5f5f5f5f5f5f5f6101a0888a031215610b53575f5ffd5b8735610b5e816109d9565b9650610b6d8960208a016109f0565b9550610b7c8960c08a01610a06565b94506101408801359350610160880135925061018088013567ffffffffffffffff811115610ba8575f5ffd5b610bb48a828b01610a16565b989b979a50959850939692959293505050565b5f5f5f5f6101008587031215610bdb575f5ffd5b8435610be6816109d9565b9350610bf586602087016109f0565b925060c0850135610c05816109d9565b915060e0850135600281900b8114610c1b575f5ffd5b939692955090935050565b5f5f5f5f5f5f6101608789031215610c3c575f5ffd5b8635610c47816109d9565b9550610c5688602089016109f0565b9450610c658860c08901610ad2565b9350610120870135925061014087013567ffffffffffffffff811115610c89575f5ffd5b610c9589828a01610a16565b979a9699509497509295939492505050565b5f5f5f5f5f5f6101208789031215610cbd575f5ffd5b8635610cc8816109d9565b9550610cd788602089016109f0565b945060c0870135935060e0870135925061010087013567ffffffffffffffff811115610c89575f5ffd5b5f60208284031215610d11575f5ffd5b8135610d1c816109d9565b9392505050565b8151151581526101c081016020830151610d41602084018215159052565b506040830151610d55604084018215159052565b506060830151610d69606084018215159052565b506080830151610d7d608084018215159052565b5060a0830151610d9160a084018215159052565b5060c0830151610da560c084018215159052565b5060e0830151610db960e084018215159052565b50610100830151610dcf61010084018215159052565b50610120830151610de561012084018215159052565b50610140830151610dfb61014084018215159052565b50610160830151610e1161016084018215159052565b50610180830151610e2761018084018215159052565b506101a0830151610e3d6101a084018215159052565b5092915050565b5f5f5f60e08486031215610e56575f5ffd5b8335610e61816109d9565b9250610e7085602086016109f0565b915060c0840135610e80816109d9565b809150509250925092565b5f5f5f5f5f5f60c08789031215610ea0575f5ffd5b50508451602086015160408701516060880151608089015160a090990151939a92995090979096509450909250905056fea164736f6c634300081e000a","linkReferences":{}},"methodIdentifiers":{"DISCOUNTED_FEE()":"52af6620","HF_DANGER()":"bae5cdd0","HF_MODERATE()":"abce1e53","HF_STRONG()":"395682b9","PREMIUM_FEE()":"c54df140","STANDARD_FEE()":"647bb2f5","aavePool()":"a03e4bc3","afterAddLiquidity(address,(address,address,uint24,int24,address),(int24,int24,int256,bytes32),int256,int256,bytes)":"9f063efc","afterDonate(address,(address,address,uint24,int24,address),uint256,uint256,bytes)":"e1b4af69","afterInitialize(address,(address,address,uint24,int24,address),uint160,int24)":"6fe7e6eb","afterRemoveLiquidity(address,(address,address,uint24,int24,address),(int24,int24,int256,bytes32),int256,int256,bytes)":"6c2bbe7e","afterSwap(address,(address,address,uint24,int24,address),(bool,int256,uint160),int256,bytes)":"b47b2fb1","beforeAddLiquidity(address,(address,address,uint24,int24,address),(int24,int24,int256,bytes32),bytes)":"259982e5","beforeDonate(address,(address,address,uint24,int24,address),uint256,uint256,bytes)":"b6a8b0fa","beforeInitialize(address,(address,address,uint24,int24,address),uint160)":"dc98354e","beforeRemoveLiquidity(address,(address,address,uint24,int24,address),(int24,int24,int256,bytes32),bytes)":"21d0ee70","beforeSwap(address,(address,address,uint24,int24,address),(bool,int256,uint160),bytes)":"575e24b4","getHookPermissions()":"c4e833ce","poolManager()":"dc4c90d3","previewFee(address)":"c112aff3"},"id":40}