{"abi":[{"type":"constructor","inputs":[{"name":"name","type":"string","internalType":"string"}],"stateMutability":"nonpayable"},{"type":"function","name":"DOMAIN_SEPARATOR","inputs":[],"outputs":[{"name":"","type":"bytes32","internalType":"bytes32"}],"stateMutability":"view"}],"bytecode":{"object":"0x60e0806040523461011457610281803803809161001c828561012c565b8339810190602081830312610114578051906001600160401b038211610114570181601f820112156101145780516001600160401b0381116101185760405191610070601f8301601f19166020018461012c565b81835260208301936020838301011161011457815f926020809301865e830101525190208060c0524660a05260405160208101917f8cad95687ba82c2ce50e74f7b754645e5117c3a5bec8151c0726d5857980a86683526040820152466060820152306080820152608081526100e760a08261012c565b51902060805260405161013190816101508239608051816061015260a051816038015260c0518160b20152f35b5f80fd5b634e487b7160e01b5f52604160045260245ffd5b601f909101601f19168101906001600160401b038211908210176101185760405256fe6080806040526004361015610012575f80fd5b5f3560e01c633644e51514610025575f80fd5b34610120575f36600319011261012057467f000000000000000000000000000000000000000000000000000000000000000003610089575060207f00000000000000000000000000000000000000000000000000000000000000005b604051908152f35b602081017f8cad95687ba82c2ce50e74f7b754645e5117c3a5bec8151c0726d5857980a86681527f000000000000000000000000000000000000000000000000000000000000000060408301524660608301523060808301526080825260a082019180831067ffffffffffffffff84111761010c57602092604052519020610081565b634e487b7160e01b5f52604160045260245ffd5b5f80fdfea164736f6c634300081a000a","linkReferences":{}},"methodIdentifiers":{"DOMAIN_SEPARATOR()":"3644e515"},"id":79}